{
  "_format": "hh-sol-artifact-1",
  "contractName": "Minter",
  "sourceName": "contracts/Minter.sol",
  "abi": [
    {
      "inputs": [
        {
          "internalType": "address[]",
          "name": "_validators",
          "type": "address[]"
        },
        {
          "internalType": "uint16",
          "name": "_threshold",
          "type": "uint16"
        },
        {
          "internalType": "contract XPNet",
          "name": "_token",
          "type": "address"
        }
      ],
      "stateMutability": "nonpayable",
      "type": "constructor"
    },
    {
      "anonymous": false,
      "inputs": [
        {
          "indexed": false,
          "internalType": "uint256",
          "name": "action_id",
          "type": "uint256"
        },
        {
          "indexed": false,
          "internalType": "string",
          "name": "to",
          "type": "string"
        },
        {
          "indexed": false,
          "internalType": "uint256",
          "name": "value",
          "type": "uint256"
        }
      ],
      "name": "Transfer",
      "type": "event"
    },
    {
      "anonymous": false,
      "inputs": [
        {
          "indexed": false,
          "internalType": "uint256",
          "name": "action_id",
          "type": "uint256"
        },
        {
          "indexed": false,
          "internalType": "string",
          "name": "to",
          "type": "string"
        },
        {
          "indexed": false,
          "internalType": "uint256",
          "name": "value",
          "type": "uint256"
        }
      ],
      "name": "Unfreeze",
      "type": "event"
    },
    {
      "inputs": [
        {
          "internalType": "string",
          "name": "to",
          "type": "string"
        }
      ],
      "name": "freeze",
      "outputs": [],
      "stateMutability": "payable",
      "type": "function"
    },
    {
      "inputs": [
        {
          "internalType": "uint128",
          "name": "action_id",
          "type": "uint128"
        },
        {
          "internalType": "address",
          "name": "to",
          "type": "address"
        },
        {
          "internalType": "uint256",
          "name": "value",
          "type": "uint256"
        }
      ],
      "name": "validate_transfer",
      "outputs": [],
      "stateMutability": "nonpayable",
      "type": "function"
    },
    {
      "inputs": [
        {
          "internalType": "uint128",
          "name": "action_id",
          "type": "uint128"
        },
        {
          "internalType": "address payable",
          "name": "to",
          "type": "address"
        },
        {
          "internalType": "uint256",
          "name": "value",
          "type": "uint256"
        }
      ],
      "name": "validate_unfreeze",
      "outputs": [],
      "stateMutability": "nonpayable",
      "type": "function"
    },
    {
      "inputs": [],
      "name": "validator_cnt",
      "outputs": [
        {
          "internalType": "uint256",
          "name": "",
          "type": "uint256"
        }
      ],
      "stateMutability": "view",
      "type": "function"
    },
    {
      "inputs": [
        {
          "internalType": "string",
          "name": "to",
          "type": "string"
        },
        {
          "internalType": "uint256",
          "name": "value",
          "type": "uint256"
        }
      ],
      "name": "withdraw",
      "outputs": [],
      "stateMutability": "nonpayable",
      "type": "function"
    }
  ],
  "bytecode": "0x608060405260006001553480156200001657600080fd5b50604051620016893803806200168983398181016040528101906200003c9190620002e1565b600083511162000083576040517f08c379a00000000000000000000000000000000000000000000000000000000081526004016200007a90620003c0565b60405180910390fd5b60008261ffff161180156200009d575082518261ffff1611155b620000df576040517f08c379a0000000000000000000000000000000000000000000000000000000008152600401620000d6906200039e565b60405180910390fd5b60005b83518110156200019c576002600360008684815181106200012c577f4e487b7100000000000000000000000000000000000000000000000000000000600052603260045260246000fd5b602002602001015173ffffffffffffffffffffffffffffffffffffffff1673ffffffffffffffffffffffffffffffffffffffff16815260200190815260200160002060006101000a81548160ff021916908360ff16021790555080806200019390620004e1565b915050620000e2565b5082516004819055508161ffff1660008190555080600260006101000a81548173ffffffffffffffffffffffffffffffffffffffff021916908373ffffffffffffffffffffffffffffffffffffffff1602179055505050506200063e565b6000620002116200020b846200040b565b620003e2565b905080838252602082019050828560208602820111156200023157600080fd5b60005b858110156200026557816200024a88826200026f565b84526020840193506020830192505060018101905062000234565b5050509392505050565b6000815190506200028081620005f0565b92915050565b600082601f8301126200029857600080fd5b8151620002aa848260208601620001fa565b91505092915050565b600081519050620002c4816200060a565b92915050565b600081519050620002db8162000624565b92915050565b600080600060608486031215620002f757600080fd5b600084015167ffffffffffffffff8111156200031257600080fd5b620003208682870162000286565b93505060206200033386828701620002ca565b92505060406200034686828701620002b3565b9150509250925092565b60006200035f6012836200043a565b91506200036c826200059e565b602082019050919050565b600062000386601d836200043a565b91506200039382620005c7565b602082019050919050565b60006020820190508181036000830152620003b98162000350565b9050919050565b60006020820190508181036000830152620003db8162000377565b9050919050565b6000620003ee62000401565b9050620003fc8282620004ab565b919050565b6000604051905090565b600067ffffffffffffffff8211156200042957620004286200055e565b5b602082029050602081019050919050565b600082825260208201905092915050565b6000620004588262000481565b9050919050565b60006200046c826200044b565b9050919050565b600061ffff82169050919050565b600073ffffffffffffffffffffffffffffffffffffffff82169050919050565b6000819050919050565b620004b6826200058d565b810181811067ffffffffffffffff82111715620004d857620004d76200055e565b5b80604052505050565b6000620004ee82620004a1565b91507fffffffffffffffffffffffffffffffffffffffffffffffffffffffffffffffff8214156200052457620005236200052f565b5b600182019050919050565b7f4e487b7100000000000000000000000000000000000000000000000000000000600052601160045260246000fd5b7f4e487b7100000000000000000000000000000000000000000000000000000000600052604160045260246000fd5b6000601f19601f8301169050919050565b7f696e76616c6964207468726573686f6c64210000000000000000000000000000600082015250565b7f56616c696461746f7273206d757374206e6f7420626520656d70747921000000600082015250565b620005fb816200044b565b81146200060757600080fd5b50565b62000615816200045f565b81146200062157600080fd5b50565b6200062f8162000473565b81146200063b57600080fd5b50565b61103b806200064e6000396000f3fe60806040526004361061004a5760003560e01c806330b39a621461004f5780635df93c7e14610078578063b037c8e8146100a1578063b6c1d663146100ca578063e6a86fb0146100f5575b600080fd5b34801561005b57600080fd5b5061007660048036038101906100719190610a1a565b610111565b005b34801561008457600080fd5b5061009f600480360381019061009a9190610a6e565b6101fa565b005b3480156100ad57600080fd5b506100c860048036038101906100c39190610abd565b6102fd565b005b3480156100d657600080fd5b506100df61041b565b6040516100ec9190610c98565b60405180910390f35b61010f600480360381019061010a91906109d9565b610421565b005b600260009054906101000a900473ffffffffffffffffffffffffffffffffffffffff1673ffffffffffffffffffffffffffffffffffffffff16639dc29fac33836040518363ffffffff1660e01b815260040161016e929190610bef565b600060405180830381600087803b15801561018857600080fd5b505af115801561019c573d6000803e3d6000fd5b505050507fe3a9e350dc360716647bf12219a620e6f9e64d2f2ee8171da1d13619d3deaf2e60015483836040516101d593929190610cb3565b60405180910390a160018060008282546101ef9190610d63565b925050819055505050565b60006102078460016104bd565b905060006001811115610243577f4e487b7100000000000000000000000000000000000000000000000000000000600052602160045260246000fd5b81600181111561027c577f4e487b7100000000000000000000000000000000000000000000000000000000600052602160045260246000fd5b14156102f7578273ffffffffffffffffffffffffffffffffffffffff166108fc839081150290604051600060405180830381858888f193505050506102f6576040517f08c379a00000000000000000000000000000000000000000000000000000000081526004016102ed90610c78565b60405180910390fd5b5b50505050565b600061030a8460006104bd565b905060006001811115610346577f4e487b7100000000000000000000000000000000000000000000000000000000600052602160045260246000fd5b81600181111561037f577f4e487b7100000000000000000000000000000000000000000000000000000000600052602160045260246000fd5b141561041557600260009054906101000a900473ffffffffffffffffffffffffffffffffffffffff1673ffffffffffffffffffffffffffffffffffffffff166340c10f1984846040518363ffffffff1660e01b81526004016103e2929190610bef565b600060405180830381600087803b1580156103fc57600080fd5b505af1158015610410573d6000803e3d6000fd5b505050505b50505050565b60045481565b60003411610464576040517f08c379a000000000000000000000000000000000000000000000000000000000815260040161045b90610c58565b60405180910390fd5b7f285755642f6d17c5bcd0bc60626e5734dd311b54dd4c6cab8425a6b3bc45ddc6600154823460405161049993929190610cb3565b60405180910390a160018060008282546104b39190610d63565b9250508190555050565b60006002600360003373ffffffffffffffffffffffffffffffffffffffff1673ffffffffffffffffffffffffffffffffffffffff16815260200190815260200160002060009054906101000a900460ff1660ff1614610551576040517f08c379a000000000000000000000000000000000000000000000000000000000815260040161054890610c18565b60405180910390fd5b600060056000856fffffffffffffffffffffffffffffffff166fffffffffffffffffffffffffffffffff1681526020019081526020016000206001015414156106815760405180604001604052808360018111156105d8577f4e487b7100000000000000000000000000000000000000000000000000000000600052602160045260246000fd5b8152602001600181525060056000856fffffffffffffffffffffffffffffffff166fffffffffffffffffffffffffffffffff16815260200190815260200160002060008201518160000160006101000a81548160ff0219169083600181111561066a577f4e487b7100000000000000000000000000000000000000000000000000000000600052602160045260246000fd5b02179055506020820151816001015590505061079c565b600260066000856fffffffffffffffffffffffffffffffff166fffffffffffffffffffffffffffffffff16815260200190815260200160002060003373ffffffffffffffffffffffffffffffffffffffff1673ffffffffffffffffffffffffffffffffffffffff16815260200190815260200160002060009054906101000a900460ff1660ff161415610749576040517f08c379a000000000000000000000000000000000000000000000000000000000815260040161074090610c38565b60405180910390fd5b600160056000856fffffffffffffffffffffffffffffffff166fffffffffffffffffffffffffffffffff16815260200190815260200160002060010160008282546107949190610d63565b925050819055505b600260066000856fffffffffffffffffffffffffffffffff166fffffffffffffffffffffffffffffffff16815260200190815260200160002060003373ffffffffffffffffffffffffffffffffffffffff1673ffffffffffffffffffffffffffffffffffffffff16815260200190815260200160002060006101000a81548160ff021916908360ff16021790555060005460056000856fffffffffffffffffffffffffffffffff166fffffffffffffffffffffffffffffffff1681526020019081526020016000206001015414156108775760009050610917565b60045460056000856fffffffffffffffffffffffffffffffff166fffffffffffffffffffffffffffffffff1681526020019081526020016000206001015414156109125760056000846fffffffffffffffffffffffffffffffff166fffffffffffffffffffffffffffffffff168152602001908152602001600020600080820160006101000a81549060ff0219169055600182016000905550505b600190505b92915050565b600061093061092b84610d16565b610cf1565b90508281526020810184848401111561094857600080fd5b610953848285610e23565b509392505050565b60008135905061096a81610fa9565b92915050565b60008135905061097f81610fc0565b92915050565b600082601f83011261099657600080fd5b81356109a684826020860161091d565b91505092915050565b6000813590506109be81610fd7565b92915050565b6000813590506109d381610fee565b92915050565b6000602082840312156109eb57600080fd5b600082013567ffffffffffffffff811115610a0557600080fd5b610a1184828501610985565b91505092915050565b60008060408385031215610a2d57600080fd5b600083013567ffffffffffffffff811115610a4757600080fd5b610a5385828601610985565b9250506020610a64858286016109c4565b9150509250929050565b600080600060608486031215610a8357600080fd5b6000610a91868287016109af565b9350506020610aa286828701610970565b9250506040610ab3868287016109c4565b9150509250925092565b600080600060608486031215610ad257600080fd5b6000610ae0868287016109af565b9350506020610af18682870161095b565b9250506040610b02868287016109c4565b9150509250925092565b610b1581610db9565b82525050565b6000610b2682610d47565b610b308185610d52565b9350610b40818560208601610e32565b610b4981610ef4565b840191505092915050565b6000610b61601083610d52565b9150610b6c82610f05565b602082019050919050565b6000610b84601483610d52565b9150610b8f82610f2e565b602082019050919050565b6000610ba7601283610d52565b9150610bb282610f57565b602082019050919050565b6000610bca601483610d52565b9150610bd582610f80565b602082019050919050565b610be981610e19565b82525050565b6000604082019050610c046000830185610b0c565b610c116020830184610be0565b9392505050565b60006020820190508181036000830152610c3181610b54565b9050919050565b60006020820190508181036000830152610c5181610b77565b9050919050565b60006020820190508181036000830152610c7181610b9a565b9050919050565b60006020820190508181036000830152610c9181610bbd565b9050919050565b6000602082019050610cad6000830184610be0565b92915050565b6000606082019050610cc86000830186610be0565b8181036020830152610cda8185610b1b565b9050610ce96040830184610be0565b949350505050565b6000610cfb610d0c565b9050610d078282610e65565b919050565b6000604051905090565b600067ffffffffffffffff821115610d3157610d30610ec5565b5b610d3a82610ef4565b9050602081019050919050565b600081519050919050565b600082825260208201905092915050565b6000610d6e82610e19565b9150610d7983610e19565b9250827fffffffffffffffffffffffffffffffffffffffffffffffffffffffffffffffff03821115610dae57610dad610e96565b5b828201905092915050565b6000610dc482610df9565b9050919050565b6000610dd682610df9565b9050919050565b60006fffffffffffffffffffffffffffffffff82169050919050565b600073ffffffffffffffffffffffffffffffffffffffff82169050919050565b6000819050919050565b82818337600083830152505050565b60005b83811015610e50578082015181840152602081019050610e35565b83811115610e5f576000848401525b50505050565b610e6e82610ef4565b810181811067ffffffffffffffff82111715610e8d57610e8c610ec5565b5b80604052505050565b7f4e487b7100000000000000000000000000000000000000000000000000000000600052601160045260246000fd5b7f4e487b7100000000000000000000000000000000000000000000000000000000600052604160045260246000fd5b6000601f19601f8301169050919050565b7f4e6f7420612076616c696461746f722100000000000000000000000000000000600082015250565b7f4475706c69636174652056616c696461746f7221000000000000000000000000600082015250565b7f76616c7565206d757374206265203e2030210000000000000000000000000000600082015250565b7f4641494c454420544f205452414e534645523f21000000000000000000000000600082015250565b610fb281610db9565b8114610fbd57600080fd5b50565b610fc981610dcb565b8114610fd457600080fd5b50565b610fe081610ddd565b8114610feb57600080fd5b50565b610ff781610e19565b811461100257600080fd5b5056fea264697066735822122023717d31f5f25fcc8546c4700835990c86b3c1f0794d4e1608cbdd5d0ed05b4b64736f6c63430008040033",
  "linkReferences": {},
  "deployedLinkReferences": {}
}