{
  "_format": "hh-sol-artifact-1",
  "contractName": "Minter",
  "sourceName": "contracts/Minter.sol",
  "abi": [
    {
      "inputs": [
        {
          "internalType": "address[]",
          "name": "_validators",
          "type": "address[]"
        },
        {
          "internalType": "uint16",
          "name": "_threshold",
          "type": "uint16"
        },
        {
          "internalType": "contract XPNet",
          "name": "_token",
          "type": "address"
        }
      ],
      "stateMutability": "nonpayable",
      "type": "constructor"
    },
    {
      "anonymous": false,
      "inputs": [
        {
          "indexed": false,
          "internalType": "uint256",
          "name": "action_id",
          "type": "uint256"
        },
        {
          "indexed": false,
          "internalType": "string",
          "name": "to",
          "type": "string"
        },
        {
          "indexed": false,
          "internalType": "uint256",
          "name": "value",
          "type": "uint256"
        }
      ],
      "name": "Unfreeze",
      "type": "event"
    },
    {
      "inputs": [
        {
          "internalType": "string",
          "name": "to",
          "type": "string"
        },
        {
          "internalType": "uint256",
          "name": "value",
          "type": "uint256"
        }
      ],
      "name": "unfreeze",
      "outputs": [],
      "stateMutability": "nonpayable",
      "type": "function"
    },
    {
      "inputs": [
        {
          "internalType": "uint128",
          "name": "action_id",
          "type": "uint128"
        },
        {
          "internalType": "address",
          "name": "to",
          "type": "address"
        },
        {
          "internalType": "uint256",
          "name": "value",
          "type": "uint256"
        }
      ],
      "name": "validate_transfer",
      "outputs": [],
      "stateMutability": "nonpayable",
      "type": "function"
    },
    {
      "inputs": [],
      "name": "validator_cnt",
      "outputs": [
        {
          "internalType": "uint256",
          "name": "",
          "type": "uint256"
        }
      ],
      "stateMutability": "view",
      "type": "function"
    }
  ],
  "bytecode": "0x608060405260006001553480156200001657600080fd5b50604051620012d8380380620012d883398181016040528101906200003c9190620002e1565b600083511162000083576040517f08c379a00000000000000000000000000000000000000000000000000000000081526004016200007a90620003c0565b60405180910390fd5b60008261ffff161180156200009d575082518261ffff1611155b620000df576040517f08c379a0000000000000000000000000000000000000000000000000000000008152600401620000d6906200039e565b60405180910390fd5b60005b83518110156200019c576002600360008684815181106200012c577f4e487b7100000000000000000000000000000000000000000000000000000000600052603260045260246000fd5b602002602001015173ffffffffffffffffffffffffffffffffffffffff1673ffffffffffffffffffffffffffffffffffffffff16815260200190815260200160002060006101000a81548160ff021916908360ff16021790555080806200019390620004e1565b915050620000e2565b5082516004819055508161ffff1660008190555080600260006101000a81548173ffffffffffffffffffffffffffffffffffffffff021916908373ffffffffffffffffffffffffffffffffffffffff1602179055505050506200063e565b6000620002116200020b846200040b565b620003e2565b905080838252602082019050828560208602820111156200023157600080fd5b60005b858110156200026557816200024a88826200026f565b84526020840193506020830192505060018101905062000234565b5050509392505050565b6000815190506200028081620005f0565b92915050565b600082601f8301126200029857600080fd5b8151620002aa848260208601620001fa565b91505092915050565b600081519050620002c4816200060a565b92915050565b600081519050620002db8162000624565b92915050565b600080600060608486031215620002f757600080fd5b600084015167ffffffffffffffff8111156200031257600080fd5b620003208682870162000286565b93505060206200033386828701620002ca565b92505060406200034686828701620002b3565b9150509250925092565b60006200035f6012836200043a565b91506200036c826200059e565b602082019050919050565b600062000386601d836200043a565b91506200039382620005c7565b602082019050919050565b60006020820190508181036000830152620003b98162000350565b9050919050565b60006020820190508181036000830152620003db8162000377565b9050919050565b6000620003ee62000401565b9050620003fc8282620004ab565b919050565b6000604051905090565b600067ffffffffffffffff8211156200042957620004286200055e565b5b602082029050602081019050919050565b600082825260208201905092915050565b6000620004588262000481565b9050919050565b60006200046c826200044b565b9050919050565b600061ffff82169050919050565b600073ffffffffffffffffffffffffffffffffffffffff82169050919050565b6000819050919050565b620004b6826200058d565b810181811067ffffffffffffffff82111715620004d857620004d76200055e565b5b80604052505050565b6000620004ee82620004a1565b91507fffffffffffffffffffffffffffffffffffffffffffffffffffffffffffffffff8214156200052457620005236200052f565b5b600182019050919050565b7f4e487b7100000000000000000000000000000000000000000000000000000000600052601160045260246000fd5b7f4e487b7100000000000000000000000000000000000000000000000000000000600052604160045260246000fd5b6000601f19601f8301169050919050565b7f696e76616c6964207468726573686f6c64210000000000000000000000000000600082015250565b7f56616c696461746f7273206d757374206e6f7420626520656d70747921000000600082015250565b620005fb816200044b565b81146200060757600080fd5b50565b62000615816200045f565b81146200062157600080fd5b50565b6200062f8162000473565b81146200063b57600080fd5b50565b610c8a806200064e6000396000f3fe608060405234801561001057600080fd5b50600436106100415760003560e01c8063b037c8e814610046578063b6c1d66314610062578063d54be8da14610080575b600080fd5b610060600480360381019061005b919061080d565b61009c565b005b61006a610623565b6040516100779190610962565b60405180910390f35b61009a600480360381019061009591906107b9565b610629565b005b6002600360003373ffffffffffffffffffffffffffffffffffffffff1673ffffffffffffffffffffffffffffffffffffffff16815260200190815260200160002060009054906101000a900460ff1660ff161461012e576040517f08c379a000000000000000000000000000000000000000000000000000000000815260040161012590610922565b60405180910390fd5b600060056000856fffffffffffffffffffffffffffffffff166fffffffffffffffffffffffffffffffff1681526020019081526020016000206002015414156102e457604051806040016040528060405180604001604052808573ffffffffffffffffffffffffffffffffffffffff168152602001848152508152602001600181525060056000856fffffffffffffffffffffffffffffffff166fffffffffffffffffffffffffffffffff16815260200190815260200160002060008201518160000160008201518160000160006101000a81548173ffffffffffffffffffffffffffffffffffffffff021916908373ffffffffffffffffffffffffffffffffffffffff16021790555060208201518160010155505060208201518160020155905050600260066000856fffffffffffffffffffffffffffffffff166fffffffffffffffffffffffffffffffff16815260200190815260200160002060003373ffffffffffffffffffffffffffffffffffffffff1673ffffffffffffffffffffffffffffffffffffffff16815260200190815260200160002060006101000a81548160ff021916908360ff16021790555061048d565b600260066000856fffffffffffffffffffffffffffffffff166fffffffffffffffffffffffffffffffff16815260200190815260200160002060003373ffffffffffffffffffffffffffffffffffffffff1673ffffffffffffffffffffffffffffffffffffffff16815260200190815260200160002060009054906101000a900460ff1660ff1614156103ac576040517f08c379a00000000000000000000000000000000000000000000000000000000081526004016103a390610942565b60405180910390fd5b600160056000856fffffffffffffffffffffffffffffffff166fffffffffffffffffffffffffffffffff16815260200190815260200160002060020160008282546103f79190610a2d565b92505081905550600260066000856fffffffffffffffffffffffffffffffff166fffffffffffffffffffffffffffffffff16815260200190815260200160002060003373ffffffffffffffffffffffffffffffffffffffff1673ffffffffffffffffffffffffffffffffffffffff16815260200190815260200160002060006101000a81548160ff021916908360ff1602179055505b60005460056000856fffffffffffffffffffffffffffffffff166fffffffffffffffffffffffffffffffff16815260200190815260200160002060020154141561056157600260009054906101000a900473ffffffffffffffffffffffffffffffffffffffff1673ffffffffffffffffffffffffffffffffffffffff166340c10f1983836040518363ffffffff1660e01b815260040161052e9291906108f9565b600060405180830381600087803b15801561054857600080fd5b505af115801561055c573d6000803e3d6000fd5b505050505b60045460056000856fffffffffffffffffffffffffffffffff166fffffffffffffffffffffffffffffffff16815260200190815260200160002060020154141561061e5760056000846fffffffffffffffffffffffffffffffff166fffffffffffffffffffffffffffffffff1681526020019081526020016000206000808201600080820160006101000a81549073ffffffffffffffffffffffffffffffffffffffff021916905560018201600090555050600282016000905550505b505050565b60045481565b600260009054906101000a900473ffffffffffffffffffffffffffffffffffffffff1673ffffffffffffffffffffffffffffffffffffffff16639dc29fac33836040518363ffffffff1660e01b81526004016106869291906108f9565b600060405180830381600087803b1580156106a057600080fd5b505af11580156106b4573d6000803e3d6000fd5b505050507fe3a9e350dc360716647bf12219a620e6f9e64d2f2ee8171da1d13619d3deaf2e60015483836040516106ed9392919061097d565b60405180910390a160018060008282546107079190610a2d565b925050819055505050565b6000610725610720846109e0565b6109bb565b90508281526020810184848401111561073d57600080fd5b610748848285610adb565b509392505050565b60008135905061075f81610c0f565b92915050565b600082601f83011261077657600080fd5b8135610786848260208601610712565b91505092915050565b60008135905061079e81610c26565b92915050565b6000813590506107b381610c3d565b92915050565b600080604083850312156107cc57600080fd5b600083013567ffffffffffffffff8111156107e657600080fd5b6107f285828601610765565b9250506020610803858286016107a4565b9150509250929050565b60008060006060848603121561082257600080fd5b60006108308682870161078f565b935050602061084186828701610750565b9250506040610852868287016107a4565b9150509250925092565b61086581610a83565b82525050565b600061087682610a11565b6108808185610a1c565b9350610890818560208601610aea565b61089981610bac565b840191505092915050565b60006108b1601083610a1c565b91506108bc82610bbd565b602082019050919050565b60006108d4601483610a1c565b91506108df82610be6565b602082019050919050565b6108f381610ad1565b82525050565b600060408201905061090e600083018561085c565b61091b60208301846108ea565b9392505050565b6000602082019050818103600083015261093b816108a4565b9050919050565b6000602082019050818103600083015261095b816108c7565b9050919050565b600060208201905061097760008301846108ea565b92915050565b600060608201905061099260008301866108ea565b81810360208301526109a4818561086b565b90506109b360408301846108ea565b949350505050565b60006109c56109d6565b90506109d18282610b1d565b919050565b6000604051905090565b600067ffffffffffffffff8211156109fb576109fa610b7d565b5b610a0482610bac565b9050602081019050919050565b600081519050919050565b600082825260208201905092915050565b6000610a3882610ad1565b9150610a4383610ad1565b9250827fffffffffffffffffffffffffffffffffffffffffffffffffffffffffffffffff03821115610a7857610a77610b4e565b5b828201905092915050565b6000610a8e82610ab1565b9050919050565b60006fffffffffffffffffffffffffffffffff82169050919050565b600073ffffffffffffffffffffffffffffffffffffffff82169050919050565b6000819050919050565b82818337600083830152505050565b60005b83811015610b08578082015181840152602081019050610aed565b83811115610b17576000848401525b50505050565b610b2682610bac565b810181811067ffffffffffffffff82111715610b4557610b44610b7d565b5b80604052505050565b7f4e487b7100000000000000000000000000000000000000000000000000000000600052601160045260246000fd5b7f4e487b7100000000000000000000000000000000000000000000000000000000600052604160045260246000fd5b6000601f19601f8301169050919050565b7f4e6f7420612076616c696461746f722100000000000000000000000000000000600082015250565b7f4475706c69636174652056616c696461746f7221000000000000000000000000600082015250565b610c1881610a83565b8114610c2357600080fd5b50565b610c2f81610a95565b8114610c3a57600080fd5b50565b610c4681610ad1565b8114610c5157600080fd5b5056fea2646970667358221220acc6c9317641418fc26acb3f962104c401cfb26559e98ca9cfa56bd7521705ed64736f6c63430008040033",
  "linkReferences": {},
  "deployedLinkReferences": {}
}